{
  "_format": "hh-sol-artifact-1",
  "contractName": "TradixProxy",
  "sourceName": "contracts/upgradability/TradixProxy.sol",
  "abi": [
    {
      "inputs": [],
      "stateMutability": "nonpayable",
      "type": "constructor"
    },
    {
      "anonymous": false,
      "inputs": [
        {
          "indexed": false,
          "internalType": "address",
          "name": "previousOwner",
          "type": "address"
        },
        {
          "indexed": false,
          "internalType": "address",
          "name": "newOwner",
          "type": "address"
        }
      ],
      "name": "ProxyOwnershipTransferred",
      "type": "event"
    },
    {
      "anonymous": false,
      "inputs": [
        {
          "indexed": true,
          "internalType": "address",
          "name": "implementation",
          "type": "address"
        }
      ],
      "name": "Upgraded",
      "type": "event"
    },
    {
      "stateMutability": "payable",
      "type": "fallback"
    },
    {
      "inputs": [],
      "name": "implementation",
      "outputs": [
        {
          "internalType": "address",
          "name": "impl",
          "type": "address"
        }
      ],
      "stateMutability": "view",
      "type": "function"
    },
    {
      "inputs": [],
      "name": "maintenance",
      "outputs": [
        {
          "internalType": "bool",
          "name": "_maintenance",
          "type": "bool"
        }
      ],
      "stateMutability": "view",
      "type": "function"
    },
    {
      "inputs": [],
      "name": "proxyOwner",
      "outputs": [
        {
          "internalType": "address",
          "name": "owner",
          "type": "address"
        }
      ],
      "stateMutability": "view",
      "type": "function"
    },
    {
      "inputs": [
        {
          "internalType": "bool",
          "name": "_maintenance",
          "type": "bool"
        }
      ],
      "name": "setMaintenance",
      "outputs": [],
      "stateMutability": "nonpayable",
      "type": "function"
    },
    {
      "inputs": [
        {
          "internalType": "address",
          "name": "newOwner",
          "type": "address"
        }
      ],
      "name": "transferProxyOwnership",
      "outputs": [],
      "stateMutability": "nonpayable",
      "type": "function"
    },
    {
      "inputs": [
        {
          "internalType": "address",
          "name": "newImplementation",
          "type": "address"
        }
      ],
      "name": "upgradeTo",
      "outputs": [],
      "stateMutability": "nonpayable",
      "type": "function"
    },
    {
      "inputs": [
        {
          "internalType": "address",
          "name": "newImplementation",
          "type": "address"
        },
        {
          "internalType": "bytes",
          "name": "data",
          "type": "bytes"
        }
      ],
      "name": "upgradeToAndCall",
      "outputs": [],
      "stateMutability": "payable",
      "type": "function"
    },
    {
      "stateMutability": "payable",
      "type": "receive"
    }
  ],
  "bytecode": "0x608060405234801561001057600080fd5b50610039337f85bd7031deaf76b80f9733e7da132fe310adf86a8e73260691b76988b4b7e35d55565b6107ba806100486000396000f3fe6080604052600436106100745760003560e01c80635c60da1b1161004e5780635c60da1b146100f9578063612f2f371461011b5780636c376cc51461013b578063f1739cae1461017a57610083565b8063025313a21461008b5780633659cfe6146100c65780634f1ef286146100e657610083565b366100835761008161019a565b005b61008161019a565b34801561009757600080fd5b50600080516020610745833981519152545b6040516001600160a01b0390911681526020015b60405180910390f35b3480156100d257600080fd5b506100816100e1366004610575565b61026f565b6100816100f43660046105ad565b6102bb565b34801561010557600080fd5b50600080516020610765833981519152546100a9565b34801561012757600080fd5b5061008161013636600461066f565b610387565b34801561014757600080fd5b507fce60c5db904241f4fe710c6b7d7c2e6f59bb4f2afc9ad1549ac9b29eb7f522b65460405190151581526020016100bd565b34801561018657600080fd5b50610081610195366004610575565b6103eb565b7fce60c5db904241f4fe710c6b7d7c2e6f59bb4f2afc9ad1549ac9b29eb7f522b6541561020a57600080516020610745833981519152546001600160a01b0316336001600160a01b03161461020a5760405162461bcd60e51b815260040161020190610691565b60405180910390fd5b60006102226000805160206107658339815191525490565b90506001600160a01b03811661024a5760405162461bcd60e51b8152600401610201906106d4565b60405136600082376000803683855af43d806000843e81801561026b578184f35b8184fd5b600080516020610745833981519152546001600160a01b0316336001600160a01b0316146102af5760405162461bcd60e51b815260040161020190610691565b6102b8816104c0565b50565b600080516020610745833981519152546001600160a01b0316336001600160a01b0316146102fb5760405162461bcd60e51b815260040161020190610691565b6103048261026f565b6000306001600160a01b0316348360405161031f9190610715565b60006040518083038185875af1925050503d806000811461035c576040519150601f19603f3d011682016040523d82523d6000602084013e610361565b606091505b50509050806103825760405162461bcd60e51b8152600401610201906106d4565b505050565b600080516020610745833981519152546001600160a01b0316336001600160a01b0316146103c75760405162461bcd60e51b815260040161020190610691565b7fce60c5db904241f4fe710c6b7d7c2e6f59bb4f2afc9ad1549ac9b29eb7f522b655565b600080516020610745833981519152546001600160a01b0316336001600160a01b03161461042b5760405162461bcd60e51b815260040161020190610691565b6001600160a01b0381166104515760405162461bcd60e51b8152600401610201906106d4565b7f5a3e66efaa1e445ebd894728a69d6959842ea1e97bd79b892797106e270efcd96104886000805160206107458339815191525490565b604080516001600160a01b03928316815291841660208301520160405180910390a16102b88160008051602061074583398151915255565b60006104d86000805160206107658339815191525490565b9050816001600160a01b0316816001600160a01b03160361050b5760405162461bcd60e51b8152600401610201906106d4565b6105218260008051602061076583398151915255565b6040516001600160a01b038316907fbc7cd75a20ee27fd9adebab32041f755214dbc6bffa90cc0225b39da2e5c2d3b90600090a25050565b80356001600160a01b038116811461057057600080fd5b919050565b60006020828403121561058757600080fd5b61059082610559565b9392505050565b634e487b7160e01b600052604160045260246000fd5b600080604083850312156105c057600080fd5b6105c983610559565b9150602083013567ffffffffffffffff808211156105e657600080fd5b818501915085601f8301126105fa57600080fd5b81358181111561060c5761060c610597565b604051601f8201601f19908116603f0116810190838211818310171561063457610634610597565b8160405282815288602084870101111561064d57600080fd5b8260208601602083013760006020848301015280955050505050509250929050565b60006020828403121561068157600080fd5b8135801515811461059057600080fd5b60208082526023908201527f4f776e6564557067726164656162696c69747950726f78793a20464f524249446040820152622222a760e91b606082015260800190565b60208082526021908201527f4f776e6564557067726164656162696c69747950726f78793a20494e56414c496040820152601160fa1b606082015260800190565b6000825160005b81811015610736576020818601810151858301520161071c565b50600092019182525091905056fe85bd7031deaf76b80f9733e7da132fe310adf86a8e73260691b76988b4b7e35df968882b178b4a61d620bde63916829c95f3e1b54eb01ef03837ff1b870f4076a2646970667358221220d28071d188927cffc388ccacd393a22fe12eec364f9379eb4b753ed573e8cc5464736f6c63430008110033",
  "linkReferences": {},
  "deployedLinkReferences": {}
}