{
  "_format": "hh-sol-artifact-1",
  "contractName": "BuyContract",
  "sourceName": "contracts/MockRouter/BuyContract.sol",
  "abi": [
    {
      "inputs": [],
      "stateMutability": "nonpayable",
      "type": "constructor"
    },
    {
      "anonymous": false,
      "inputs": [
        {
          "indexed": false,
          "internalType": "uint8",
          "name": "version",
          "type": "uint8"
        }
      ],
      "name": "Initialized",
      "type": "event"
    },
    {
      "anonymous": false,
      "inputs": [
        {
          "indexed": true,
          "internalType": "address",
          "name": "previousOwner",
          "type": "address"
        },
        {
          "indexed": true,
          "internalType": "address",
          "name": "newOwner",
          "type": "address"
        }
      ],
      "name": "OwnershipTransferred",
      "type": "event"
    },
    {
      "anonymous": false,
      "inputs": [
        {
          "indexed": true,
          "internalType": "address",
          "name": "tokenIn",
          "type": "address"
        },
        {
          "indexed": true,
          "internalType": "address",
          "name": "tokenOut",
          "type": "address"
        },
        {
          "indexed": false,
          "internalType": "uint256",
          "name": "amountIn",
          "type": "uint256"
        },
        {
          "indexed": false,
          "internalType": "uint256",
          "name": "amountOut",
          "type": "uint256"
        },
        {
          "indexed": true,
          "internalType": "address",
          "name": "to",
          "type": "address"
        }
      ],
      "name": "TokensSwapped",
      "type": "event"
    },
    {
      "inputs": [],
      "name": "UNISWAP_V2_ROUTER",
      "outputs": [
        {
          "internalType": "address",
          "name": "",
          "type": "address"
        }
      ],
      "stateMutability": "view",
      "type": "function"
    },
    {
      "inputs": [],
      "name": "WETH",
      "outputs": [
        {
          "internalType": "address",
          "name": "",
          "type": "address"
        }
      ],
      "stateMutability": "view",
      "type": "function"
    },
    {
      "inputs": [
        {
          "internalType": "address",
          "name": "_tokenIn",
          "type": "address"
        },
        {
          "internalType": "address",
          "name": "_tokenOut",
          "type": "address"
        },
        {
          "internalType": "uint256",
          "name": "_amountIn",
          "type": "uint256"
        }
      ],
      "name": "getAmountOutMin",
      "outputs": [
        {
          "internalType": "uint256",
          "name": "",
          "type": "uint256"
        }
      ],
      "stateMutability": "view",
      "type": "function"
    },
    {
      "inputs": [
        {
          "internalType": "address",
          "name": "_router",
          "type": "address"
        },
        {
          "internalType": "address",
          "name": "_Weth",
          "type": "address"
        },
        {
          "internalType": "address",
          "name": "_maintanierAddress",
          "type": "address"
        },
        {
          "internalType": "address",
          "name": "_platformAddress",
          "type": "address"
        }
      ],
      "name": "initialize",
      "outputs": [],
      "stateMutability": "nonpayable",
      "type": "function"
    },
    {
      "inputs": [],
      "name": "owner",
      "outputs": [
        {
          "internalType": "address",
          "name": "",
          "type": "address"
        }
      ],
      "stateMutability": "view",
      "type": "function"
    },
    {
      "inputs": [
        {
          "internalType": "address",
          "name": "_tokenIn",
          "type": "address"
        },
        {
          "internalType": "address",
          "name": "_to",
          "type": "address"
        }
      ],
      "name": "quickSwapWithFeeSell",
      "outputs": [],
      "stateMutability": "nonpayable",
      "type": "function"
    },
    {
      "inputs": [
        {
          "internalType": "address",
          "name": "_tokenIn",
          "type": "address"
        },
        {
          "internalType": "address",
          "name": "_to",
          "type": "address"
        },
        {
          "internalType": "uint256",
          "name": "_afterTax",
          "type": "uint256"
        }
      ],
      "name": "quickSwapWithSellTaxToken",
      "outputs": [],
      "stateMutability": "nonpayable",
      "type": "function"
    },
    {
      "inputs": [],
      "name": "renounceOwnership",
      "outputs": [],
      "stateMutability": "nonpayable",
      "type": "function"
    },
    {
      "inputs": [
        {
          "internalType": "address",
          "name": "_account",
          "type": "address"
        }
      ],
      "name": "setMaintainerAddress",
      "outputs": [],
      "stateMutability": "nonpayable",
      "type": "function"
    },
    {
      "inputs": [
        {
          "internalType": "address",
          "name": "_account",
          "type": "address"
        }
      ],
      "name": "setPlatformAddress",
      "outputs": [],
      "stateMutability": "nonpayable",
      "type": "function"
    },
    {
      "inputs": [
        {
          "internalType": "address",
          "name": "_tokenOut",
          "type": "address"
        },
        {
          "internalType": "uint256",
          "name": "_amountOutMin",
          "type": "uint256"
        },
        {
          "internalType": "address",
          "name": "_to",
          "type": "address"
        }
      ],
      "name": "swapWithBuyTaxToken",
      "outputs": [],
      "stateMutability": "payable",
      "type": "function"
    },
    {
      "inputs": [
        {
          "internalType": "address",
          "name": "_tokenOut",
          "type": "address"
        },
        {
          "internalType": "uint256",
          "name": "_amountOutMin",
          "type": "uint256"
        },
        {
          "internalType": "address",
          "name": "_to",
          "type": "address"
        }
      ],
      "name": "swapWithFeeBuy",
      "outputs": [],
      "stateMutability": "payable",
      "type": "function"
    },
    {
      "inputs": [
        {
          "internalType": "address",
          "name": "_tokenIn",
          "type": "address"
        },
        {
          "internalType": "uint256",
          "name": "_amountIn",
          "type": "uint256"
        },
        {
          "internalType": "uint256",
          "name": "_amountOutMin",
          "type": "uint256"
        },
        {
          "internalType": "address",
          "name": "_to",
          "type": "address"
        }
      ],
      "name": "swapWithFeeSell",
      "outputs": [],
      "stateMutability": "nonpayable",
      "type": "function"
    },
    {
      "inputs": [
        {
          "internalType": "address",
          "name": "_tokenIn",
          "type": "address"
        },
        {
          "internalType": "uint256",
          "name": "_amountIn",
          "type": "uint256"
        },
        {
          "internalType": "uint256",
          "name": "_amountOutMin",
          "type": "uint256"
        },
        {
          "internalType": "address",
          "name": "_to",
          "type": "address"
        },
        {
          "internalType": "uint256",
          "name": "_afterTax",
          "type": "uint256"
        }
      ],
      "name": "swapWithSellTaxToken",
      "outputs": [],
      "stateMutability": "nonpayable",
      "type": "function"
    },
    {
      "inputs": [
        {
          "internalType": "address",
          "name": "newOwner",
          "type": "address"
        }
      ],
      "name": "transferOwnership",
      "outputs": [],
      "stateMutability": "nonpayable",
      "type": "function"
    },
    {
      "inputs": [
        {
          "internalType": "address payable",
          "name": "recipient",
          "type": "address"
        },
        {
          "internalType": "uint256",
          "name": "amount",
          "type": "uint256"
        }
      ],
      "name": "withdrawEther",
      "outputs": [],
      "stateMutability": "nonpayable",
      "type": "function"
    },
    {
      "stateMutability": "payable",
      "type": "receive"
    }
  ],
  "bytecode": "0x60806040523480156200001157600080fd5b506200001c62000022565b620000e3565b600054610100900460ff16156200008f5760405162461bcd60e51b815260206004820152602760248201527f496e697469616c697a61626c653a20636f6e747261637420697320696e697469604482015266616c697a696e6760c81b606482015260840160405180910390fd5b60005460ff90811614620000e1576000805460ff191660ff9081179091556040519081527f7f26b83ff96e1f2b6a682f133852f6798a09c465da95921460cefb38474024989060200160405180910390a15b565b61273880620000f36000396000f3fe6080604052600436106100f75760003560e01c8063a82ed9ec1161008a578063be6d8d5811610059578063be6d8d5814610285578063cc03c342146102a5578063f2fde38b146102c5578063f8c8765e146102e557600080fd5b8063a82ed9ec14610212578063ad5c464814610232578063aeb524ae14610252578063b71808121461026557600080fd5b80635f3a3b9e116100c65780635f3a3b9e14610198578063715018a6146101b8578063806e14b8146101cd5780638da5cb5b146101e057600080fd5b80630e8c6227146101035780633c50eec114610125578063522f6815146101585780635ece79521461017857600080fd5b366100fe57005b600080fd5b34801561010f57600080fd5b5061012361011e366004612111565b610305565b005b34801561013157600080fd5b50610145610140366004612163565b61078a565b6040519081526020015b60405180910390f35b34801561016457600080fd5b506101236101733660046121a4565b610953565b34801561018457600080fd5b50610123610193366004612163565b610a48565b3480156101a457600080fd5b506101236101b33660046121d0565b610ecb565b3480156101c457600080fd5b5061012361113f565b6101236101db36600461221a565b611153565b3480156101ec57600080fd5b506033546001600160a01b03165b6040516001600160a01b03909116815260200161014f565b34801561021e57600080fd5b506065546101fa906001600160a01b031681565b34801561023e57600080fd5b506066546101fa906001600160a01b031681565b61012361026036600461221a565b6114e6565b34801561027157600080fd5b5061012361028036600461225c565b611789565b34801561029157600080fd5b506101236102a0366004612295565b611bcb565b3480156102b157600080fd5b506101236102c0366004612295565b611c1d565b3480156102d157600080fd5b506101236102e0366004612295565b611c6f565b3480156102f157600080fd5b506101236103003660046122b9565b611ce8565b816001600160a01b0381166103355760405162461bcd60e51b815260040161032c9061230a565b60405180910390fd5b84806000036103565760405162461bcd60e51b815260040161032c90612336565b84806000036103775760405162461bcd60e51b815260040161032c90612336565b60408051600280825260608201835260009260208301908036833701905050905088816000815181106103ac576103ac612377565b6001600160a01b0392831660209182029290920101526066548251911690829060019081106103dd576103dd612377565b6001600160a01b0392831660209182029290920101526040516323b872dd60e01b8152908a16906323b872dd9061041c90339030908d9060040161238d565b6020604051808303816000875af115801561043b573d6000803e3d6000fd5b505050506040513d601f19601f8201168201806040525081019061045f91906123b1565b5060655460405163095ea7b360e01b81526001600160a01b039182166004820152602481018a9052908a169063095ea7b3906044016020604051808303816000875af11580156104b3573d6000803e3d6000fd5b505050506040513d601f19601f820116820180604052508101906104d791906123b1565b506065546040516370a0823160e01b81523060048201526001600160a01b039182169163791ac94791908c16906370a0823190602401602060405180830381865afa15801561052a573d6000803e3d6000fd5b505050506040513d601f19601f8201168201806040525081019061054e91906123d3565b898430426040518663ffffffff1660e01b8152600401610572959493929190612430565b600060405180830381600087803b15801561058c57600080fd5b505af11580156105a0573d6000803e3d6000fd5b5050505060008060006105b288611f9f565b6068546040519397509195509350600092506001600160a01b03169085908381818185875af1925050503d8060008114610608576040519150601f19603f3d011682016040523d82523d6000602084013e61060d565b606091505b505090508061062e5760405162461bcd60e51b815260040161032c9061246c565b506067546040516000916001600160a01b03169084908381818185875af1925050503d806000811461067c576040519150601f19603f3d011682016040523d82523d6000602084013e610681565b606091505b505080915050806106a45760405162461bcd60e51b815260040161032c906124ad565b506040516000906001600160a01b038b169083908381818185875af1925050503d80600081146106f0576040519150601f19603f3d011682016040523d82523d6000602084013e6106f5565b606091505b505080915050806107185760405162461bcd60e51b815260040161032c906124e4565b896001600160a01b0316606660009054906101000a90046001600160a01b03166001600160a01b03168e6001600160a01b03166000805160206126e38339815191528f86604051610773929190918252602082015260400190565b60405180910390a450505050505050505050505050565b60408051600280825260608083018452600093909291906020830190803683375050606654919250506001600160a01b03908116908616036108415760665481516001600160a01b039091169082906000906107e8576107e8612377565b60200260200101906001600160a01b031690816001600160a01b031681525050838160018151811061081c5761081c612377565b60200260200101906001600160a01b031690816001600160a01b0316815250506108a7565b838160008151811061085557610855612377565b6001600160a01b03928316602091820292909201015260665482519116908290600190811061088657610886612377565b60200260200101906001600160a01b031690816001600160a01b0316815250505b60655460405163d06ca61f60e01b81526000916001600160a01b03169063d06ca61f906108da908790869060040161251b565b600060405180830381865afa1580156108f7573d6000803e3d6000fd5b505050506040513d6000823e601f3d908101601f1916820160405261091f919081019061253c565b905080600183516109309190612610565b8151811061094057610940612377565b6020026020010151925050509392505050565b61095b611ff6565b6001600160a01b0382166109b15760405162461bcd60e51b815260206004820152601960248201527f496e76616c696420726563697069656e74206164647265737300000000000000604482015260640161032c565b80471015610a0d5760405162461bcd60e51b8152602060048201526024808201527f496e73756666696369656e742062616c616e636520696e2074686520636f6e746044820152631c9858dd60e21b606482015260840161032c565b6040516001600160a01b0383169082156108fc029083906000818181858888f19350505050158015610a43573d6000803e3d6000fd5b505050565b816001600160a01b038116610a6f5760405162461bcd60e51b815260040161032c9061230a565b6040516370a0823160e01b81523360048201526000906001600160a01b038616906370a0823190602401602060405180830381865afa158015610ab6573d6000803e3d6000fd5b505050506040513d601f19601f82011682018060405250810190610ada91906123d3565b60408051600280825260608201835292935060009290916020830190803683370190505090508581600081518110610b1457610b14612377565b6001600160a01b039283166020918202929092010152606654825191169082906001908110610b4557610b45612377565b6001600160a01b0392831660209182029290920101526040516323b872dd60e01b8152908716906323b872dd90610b849033903090879060040161238d565b6020604051808303816000875af1158015610ba3573d6000803e3d6000fd5b505050506040513d601f19601f82011682018060405250810190610bc791906123b1565b5060655460405163095ea7b360e01b81526001600160a01b039182166004820152602481018490529087169063095ea7b3906044016020604051808303816000875af1158015610c1b573d6000803e3d6000fd5b505050506040513d601f19601f82011682018060405250810190610c3f91906123b1565b506065546040516370a0823160e01b81523060048201526001600160a01b039182169163791ac94791908916906370a0823190602401602060405180830381865afa158015610c92573d6000803e3d6000fd5b505050506040513d601f19601f82011682018060405250810190610cb691906123d3565b60008430426040518663ffffffff1660e01b8152600401610cdb959493929190612430565b600060405180830381600087803b158015610cf557600080fd5b505af1158015610d09573d6000803e3d6000fd5b505050506000806000610d1b87611f9f565b6068546040519397509195509350600092506001600160a01b03169085908381818185875af1925050503d8060008114610d71576040519150601f19603f3d011682016040523d82523d6000602084013e610d76565b606091505b5050905080610d975760405162461bcd60e51b815260040161032c9061246c565b506067546040516000916001600160a01b03169084908381818185875af1925050503d8060008114610de5576040519150601f19603f3d011682016040523d82523d6000602084013e610dea565b606091505b50508091505080610e0d5760405162461bcd60e51b815260040161032c906124ad565b506040516000906001600160a01b038a169083908381818185875af1925050503d8060008114610e59576040519150601f19603f3d011682016040523d82523d6000602084013e610e5e565b606091505b50508091505080610e815760405162461bcd60e51b815260040161032c906124e4565b60665460408051888152602081018590526001600160a01b038c811693811692908e16916000805160206126e383398151915291015b60405180910390a450505050505050505050565b806001600160a01b038116610ef25760405162461bcd60e51b815260040161032c9061230a565b8380600003610f135760405162461bcd60e51b815260040161032c90612336565b8380600003610f345760405162461bcd60e51b815260040161032c90612336565b6040805160028082526060820183526000926020830190803683370190505090508781600081518110610f6957610f69612377565b6001600160a01b039283166020918202929092010152606654825191169082906001908110610f9a57610f9a612377565b6001600160a01b0392831660209182029290920101526040516323b872dd60e01b8152908916906323b872dd90610fd990339030908c9060040161238d565b6020604051808303816000875af1158015610ff8573d6000803e3d6000fd5b505050506040513d601f19601f8201168201806040525081019061101c91906123b1565b5060655460405163095ea7b360e01b81526001600160a01b039182166004820152602481018990529089169063095ea7b3906044016020604051808303816000875af1158015611070573d6000803e3d6000fd5b505050506040513d601f19601f8201168201806040525081019061109491906123b1565b506065546040516318cbafe560e01b81526000916001600160a01b0316906318cbafe5906110ce908b908b90879030904290600401612430565b6000604051808303816000875af11580156110ed573d6000803e3d6000fd5b505050506040513d6000823e601f3d908101601f19168201604052611115919081019061253c565b60018151811061112757611127612377565b6020026020010151905060008060006105b284611f9f565b611147611ff6565b6111516000612050565b565b806001600160a01b03811661117a5760405162461bcd60e51b815260040161032c9061230a565b828060000361119b5760405162461bcd60e51b815260040161032c90612336565b600034116111e35760405162461bcd60e51b81526020600482015260156024820152741090ce925b9d985b1a590811551208105b5bdd5b9d605a1b604482015260640161032c565b6040805160028082526060808301845292602083019080368337505060665482519293506001600160a01b03169183915060009061122357611223612377565b60200260200101906001600160a01b031690816001600160a01b031681525050858160018151811061125757611257612377565b60200260200101906001600160a01b031690816001600160a01b031681525050600080600061128534611f9f565b6068546040519397509195509350600092506001600160a01b03169085908381818185875af1925050503d80600081146112db576040519150601f19603f3d011682016040523d82523d6000602084013e6112e0565b606091505b50509050806113015760405162461bcd60e51b815260040161032c9061246c565b6067546040516001600160a01b03909116908490600081818185875af1925050503d806000811461134e576040519150601f19603f3d011682016040523d82523d6000602084013e611353565b606091505b505080915050806113765760405162461bcd60e51b815260040161032c9061246c565b60655460405163b6f9de9560e01b81526001600160a01b039091169063b6f9de959084906113ae908d908a908e904290600401612629565b6000604051808303818588803b1580156113c757600080fd5b505af11580156113db573d6000803e3d6000fd5b505060655460405163d06ca61f60e01b8152600094506001600160a01b03909116925063d06ca61f91506114159086908a9060040161251b565b600060405180830381865afa158015611432573d6000803e3d6000fd5b505050506040513d6000823e601f3d908101601f1916820160405261145a919081019061253c565b60008151811061146c5761146c612377565b60200260200101519050886001600160a01b03168b6001600160a01b0316606660009054906101000a90046001600160a01b03166001600160a01b03166000805160206126e383398151915286856040516114d1929190918252602082015260400190565b60405180910390a45050505050505050505050565b806001600160a01b03811661150d5760405162461bcd60e51b815260040161032c9061230a565b828060000361152e5760405162461bcd60e51b815260040161032c90612336565b600034116115765760405162461bcd60e51b81526020600482015260156024820152741090ce925b9d985b1a590811551208105b5bdd5b9d605a1b604482015260640161032c565b6040805160028082526060808301845292602083019080368337505060665482519293506001600160a01b0316918391506000906115b6576115b6612377565b60200260200101906001600160a01b031690816001600160a01b03168152505085816001815181106115ea576115ea612377565b60200260200101906001600160a01b031690816001600160a01b031681525050600080600061161834611f9f565b6068546040519397509195509350600092506001600160a01b03169085908381818185875af1925050503d806000811461166e576040519150601f19603f3d011682016040523d82523d6000602084013e611673565b606091505b50509050806116945760405162461bcd60e51b815260040161032c9061246c565b6067546040516001600160a01b03909116908490600081818185875af1925050503d80600081146116e1576040519150601f19603f3d011682016040523d82523d6000602084013e6116e6565b606091505b505080915050806117095760405162461bcd60e51b815260040161032c9061246c565b606554604051637ff36ab560e01b81526000916001600160a01b031690637ff36ab5908590611742908e908b908f904290600401612629565b60006040518083038185885af1158015611760573d6000803e3d6000fd5b50505050506040513d6000823e601f3d908101601f1916820160405261145a919081019061253c565b806001600160a01b0381166117b05760405162461bcd60e51b815260040161032c9061230a565b6040516370a0823160e01b81523360048201526000906001600160a01b038516906370a0823190602401602060405180830381865afa1580156117f7573d6000803e3d6000fd5b505050506040513d601f19601f8201168201806040525081019061181b91906123d3565b6040805160028082526060820183529293506000929091602083019080368337019050509050848160008151811061185557611855612377565b6001600160a01b03928316602091820292909201015260665482519116908290600190811061188657611886612377565b6001600160a01b0392831660209182029290920101526040516323b872dd60e01b8152908616906323b872dd906118c59033903090879060040161238d565b6020604051808303816000875af11580156118e4573d6000803e3d6000fd5b505050506040513d601f19601f8201168201806040525081019061190891906123b1565b5060655460405163095ea7b360e01b81526001600160a01b039182166004820152602481018490529086169063095ea7b3906044016020604051808303816000875af115801561195c573d6000803e3d6000fd5b505050506040513d601f19601f8201168201806040525081019061198091906123b1565b506065546040516318cbafe560e01b81526000916001600160a01b0316906318cbafe5906119ba9086908590879030904290600401612430565b6000604051808303816000875af11580156119d9573d6000803e3d6000fd5b505050506040513d6000823e601f3d908101601f19168201604052611a01919081019061253c565b600181518110611a1357611a13612377565b602002602001015190506000806000611a2b84611f9f565b6068546040519397509195509350600092506001600160a01b03169085908381818185875af1925050503d8060008114611a81576040519150601f19603f3d011682016040523d82523d6000602084013e611a86565b606091505b5050905080611aa75760405162461bcd60e51b815260040161032c9061246c565b506067546040516000916001600160a01b03169084908381818185875af1925050503d8060008114611af5576040519150601f19603f3d011682016040523d82523d6000602084013e611afa565b606091505b50508091505080611b1d5760405162461bcd60e51b815260040161032c906124ad565b506040516000906001600160a01b038a169083908381818185875af1925050503d8060008114611b69576040519150601f19603f3d011682016040523d82523d6000602084013e611b6e565b606091505b50508091505080611b915760405162461bcd60e51b815260040161032c906124e4565b60665460408051898152602081018590526001600160a01b038c811693811692908e16916000805160206126e38339815191529101610eb7565b611bd3611ff6565b806001600160a01b038116611bfa5760405162461bcd60e51b815260040161032c9061230a565b50606880546001600160a01b0319166001600160a01b0392909216919091179055565b611c25611ff6565b806001600160a01b038116611c4c5760405162461bcd60e51b815260040161032c9061230a565b50606780546001600160a01b0319166001600160a01b0392909216919091179055565b611c77611ff6565b6001600160a01b038116611cdc5760405162461bcd60e51b815260206004820152602660248201527f4f776e61626c653a206e6577206f776e657220697320746865207a65726f206160448201526564647265737360d01b606482015260840161032c565b611ce581612050565b50565b600054610100900460ff1615808015611d085750600054600160ff909116105b80611d225750303b158015611d22575060005460ff166001145b611d855760405162461bcd60e51b815260206004820152602e60248201527f496e697469616c697a61626c653a20636f6e747261637420697320616c72656160448201526d191e481a5b9a5d1a585b1a5e995960921b606482015260840161032c565b6000805460ff191660011790558015611da8576000805461ff0019166101001790555b6001600160a01b038516611dfe5760405162461bcd60e51b815260206004820152601960248201527f42433a496e76616c696420726f75746572206164647265737300000000000000604482015260640161032c565b6001600160a01b038416611e545760405162461bcd60e51b815260206004820152601760248201527f42433a496e76616c696420574554482061646472657373000000000000000000604482015260640161032c565b6001600160a01b038316611eaa5760405162461bcd60e51b815260206004820152601d60248201527f42433a496e76616c6964206d61696e7461696e65722061646472657373000000604482015260640161032c565b6001600160a01b038216611f005760405162461bcd60e51b815260206004820152601b60248201527f42433a496e76616c696420706c6174666f726d20616464726573730000000000604482015260640161032c565b606580546001600160a01b038088166001600160a01b03199283161790925560668054878416908316179055606880548684169083161790556067805492851692909116919091179055611f526120a2565b8015611f98576000805461ff0019169055604051600181527f7f26b83ff96e1f2b6a682f133852f6798a09c465da95921460cefb38474024989060200160405180910390a15b5050505050565b6000808080612710611fb286606361265e565b611fbc9190612675565b93506064611fcb85602861265e565b611fd59190612675565b9250611fe18385612610565b9150611fed8486612610565b90509193509193565b6033546001600160a01b031633146111515760405162461bcd60e51b815260206004820181905260248201527f4f776e61626c653a2063616c6c6572206973206e6f7420746865206f776e6572604482015260640161032c565b603380546001600160a01b038381166001600160a01b0319831681179093556040519116919082907f8be0079c531659141344cd1fd0a4f28419497f9722a3daafe3b4186f6b6457e090600090a35050565b600054610100900460ff166120c95760405162461bcd60e51b815260040161032c90612697565b611151600054610100900460ff166120f35760405162461bcd60e51b815260040161032c90612697565b61115133612050565b6001600160a01b0381168114611ce557600080fd5b600080600080600060a0868803121561212957600080fd5b8535612134816120fc565b945060208601359350604086013592506060860135612152816120fc565b949793965091946080013592915050565b60008060006060848603121561217857600080fd5b8335612183816120fc565b92506020840135612193816120fc565b929592945050506040919091013590565b600080604083850312156121b757600080fd5b82356121c2816120fc565b946020939093013593505050565b600080600080608085870312156121e657600080fd5b84356121f1816120fc565b93506020850135925060408501359150606085013561220f816120fc565b939692955090935050565b60008060006060848603121561222f57600080fd5b833561223a816120fc565b9250602084013591506040840135612251816120fc565b809150509250925092565b6000806040838503121561226f57600080fd5b823561227a816120fc565b9150602083013561228a816120fc565b809150509250929050565b6000602082840312156122a757600080fd5b81356122b2816120fc565b9392505050565b600080600080608085870312156122cf57600080fd5b84356122da816120fc565b935060208501356122ea816120fc565b925060408501356122fa816120fc565b9150606085013561220f816120fc565b60208082526012908201527142433a496e76616c6964206164647265737360701b604082015260600190565b6020808252601190820152701090ce925b9d985b1a5908105b5bdd5b9d607a1b604082015260600190565b634e487b7160e01b600052604160045260246000fd5b634e487b7160e01b600052603260045260246000fd5b6001600160a01b039384168152919092166020820152604081019190915260600190565b6000602082840312156123c357600080fd5b815180151581146122b257600080fd5b6000602082840312156123e557600080fd5b5051919050565b600081518084526020808501945080840160005b838110156124255781516001600160a01b031687529582019590820190600101612400565b509495945050505050565b85815284602082015260a06040820152600061244f60a08301866123ec565b6001600160a01b0394909416606083015250608001529392505050565b60208082526021908201527f455448207472616e73666572206661696c656420546f204d61696e7461696e656040820152603960f91b606082015260800190565b6020808252601f908201527f455448207472616e73666572206661696c656420546f20506c6174666f726d00604082015260600190565b6020808252601b908201527f455448207472616e73666572206661696c656420546f20557365720000000000604082015260600190565b82815260406020820152600061253460408301846123ec565b949350505050565b6000602080838503121561254f57600080fd5b825167ffffffffffffffff8082111561256757600080fd5b818501915085601f83011261257b57600080fd5b81518181111561258d5761258d612361565b8060051b604051601f19603f830116810181811085821117156125b2576125b2612361565b6040529182528482019250838101850191888311156125d057600080fd5b938501935b828510156125ee578451845293850193928501926125d5565b98975050505050505050565b634e487b7160e01b600052601160045260246000fd5b81810381811115612623576126236125fa565b92915050565b84815260806020820152600061264260808301866123ec565b6001600160a01b03949094166040830152506060015292915050565b8082028115828204841417612623576126236125fa565b60008261269257634e487b7160e01b600052601260045260246000fd5b500490565b6020808252602b908201527f496e697469616c697a61626c653a20636f6e7472616374206973206e6f74206960408201526a6e697469616c697a696e6760a81b60608201526080019056fe39b1c3a0b902e92e5120bee0c1f47210b9aad5429ac73d09b38e7cef5d24f1efa2646970667358221220aad38b114ea3ff9c97b5940fd753290b37ad09d20de8fdea6ddfd19cbc23bee964736f6c63430008110033",
  "linkReferences": {},
  "deployedLinkReferences": {}
}